:020000040400F6
:1000100000000000000000000000000014000400C8
:10002000815C3A6900000000000000000000000050
:1000300000000000000000000000000000000000C0
:1000400000000000000000000000000000000000B0
:10005000000701000000000000ACEA020000000000
:100060000000000000000000000000000000000090
:100070000000000000000000000000000000000080
:1008000090DB04206CBF0320D8F405040000000036
:100810000000000018F8050430DC0420F9DB042097
:100840004BF498BAFFF304BC53F433BD53F46EBDBC
:1008500053F4B4BDFFF3FEBBFFF3FEBB53F421BD65
:1008600053F41DBD53F41FBDFFF3FEBBFFF3FEBBEE
:1008700053F4F5BC53F403BDFFF3FEBBFFF3FEBB23
:1008800053F4EBBC53F4E0BC53F4D2BCFFF3FEBB17
:10089000FFF3FEBBFFF3FEBBFFF3FEBBFFF3FEBBAC
:1008A000FFF3FEBBFFF3FEBBFFF3FEBBFFF3FEBB9C
:1008B00053F468BEFFF3FCBBFFF3FCBBFFF3FCBBD0
:1008C00053F462BE53F476BFFFF3F8BBFFF3F8BBFB
:1008D000FFF3F8BBFFF3F8BBFFF3F8BB54F413B915
:1008E00054F413B954F414B900F04ABF00F048BFEF
:1008F00017F024B2FFF3ECBBFFF3ECBBFFF3ECBB50
:10090000FFF3ECBB16F02AB015F048B7FFF3E8BBD5
:1009100000F036BF00F034BF13F074B6FFF3E2BB53
:10092000FFF3E2BBFFF3E2BBFFF3E2BBFFF3E2BB8B
:1009300013F0EDB613F0E1B613F0CBB613F0CBB66F
:1009400013F0CBB64BF4EEBB4BF41EBC4BF4D0BA59
:100950004BF4CCBA4BF4C8BA4BF4A8BD4BF4A8BDC9
:1009600000F00EBF00F00CBF00F00ABF00F008BF9F
:1009700000F006BF00F004BFFFF3BEBBFFF3BEBB39
:1009800054F4DABE54F4C2BE54F468BE54F48ABEC1
:1009900054F4F4BE54F400BE54F41EBF54F46ABFC1
:1009A00054F4B0BEFFF3ACBB55F47EB855F496B822
:1009B00054F4F2BF4DF412BF4DF4CCBE4DF4EABE78
:1009C0004DF468BF55F42EBD55F432BD55F436BD17
:1009D0004EF46EBD4EF478BE50F414BA4EF483BC9F
:1009E0004EF482BC4EF482BC4EF40EBD50F464BA98
:1009F00055F4D6B855F4DAB84FF43ABC4FF43BBCD2
:100A00004EF46ABE4FF478B9FFF37CBB4BF484BD5F
:100A10004BF4A8BDFFF378BBFFF378BBFFF378BBC3
:100A2000FFF378BBFFF378BBFFF378BBFFF378BB32
:100A3000FFF378BBFFF378BBFFF378BB54F4DABB6A
:100A400054F46FB954F496B954F41ABA54F426BA5B
:100A500054F42CBA54F432BA54F438BA54F43EBABA
:100A600054F44EBA54F476BA54F47EBA54F48ABAB2
:100A700054F498BA54F4B0BA54F4C6BA54F4ECBA74
:100A800054F41CBB54F428BB54F430BB54F4D0BA17
:100A900054F44ABB54F4EABA54F4F2BA00F070BE0B
:100AA00054F48ABB54F490BB54F4D0BB54F400BC4F
:100AB00054F4F2BB54F40ABC54F416BC54F430BCE5
:100AC00054F4CCBB54F4DABB54F41CBCFFF330BB7D
:100AD00054F49CBB54F4A8BB54F430BC54F44EBB47
:100AE000FFF328BBFFF328BBFFF328BBFFF328BBB2
:100AF000FFF328BBFFF328BBFFF328BBFFF328BBA2
:100B0000FFF328BBFFF328BBFFF328BBFFF328BB91
:100B1000FFF328BB4BF428BD54F4EEB8FFF324BB1D
:100B2000FFF324BBFFF324BBFFF324BBFFF324BB81
:100B3000FFF324BBFFF324BBFFF324BBFFF324BB71
:100B4000FFF324BBFFF324BBFFF324BBFFF324BB61
:100B5000FFF324BBFFF324BBFFF324BBFFF324BB51
:100B6000FFF324BBFFF324BBFFF324BBFFF324BB41
:100B7000FFF324BBFFF324BBFFF324BB54F4ACB856
:100B800054F406B9FFF320BBFFF320BBFFF320BBF7
:100B9000FFF320BBFFF320BBFFF320BB54F4A4B84A
:100BA00000F0EEBD00F0ECBD00F0EABDFFF318BBB5
:100BB000FFF318BBFFF318BBFFF318BBFFF318BB21
:100BC000FFF318BB00F0DCBD00F0DABD00F0D8BDCB
:100BD000FFF312BBFFF312BBFFF312BBFFF312BB19
:100BE000FFF312BBFFF312BBFFF312BBFFF312BB09
:100BF000FFF312BBFFF312BBFFF312BBFFF312BBF9
:100C0000FFF312BBFFF312BBFFF312BBFFF312BBE8
:100C1000FFF312BBFFF312BBFFF312BBFFF312BBD8
:100C2000FFF312BBFFF312BBFFF312BBFFF312BBC8
:100C3000FFF312BBFFF312BBFFF312BBFFF312BBB8
:100C4000FFF312BBFFF312BBFFF312BBFFF312BBA8
:100C5000FFF312BB4BF4F0BC4BF493BC4BF493BCCE
:100C60004BF497BC4BF49BBC4BF4B1BC4BF4B6BCFF
:100C70004BF4B6BC4BF4BABC4BF4BABC4BF4BABCA4
:100C80004BF4BABC4BF4BABC4BF4BCBC4BF4BCBC8C
:100C90004BF4BCBC4BF4BCBC4BF4BCBC4BF4BCBC78
:100CA0004BF4BEBC4BF4BEBC4BF4BEBC00F068BD04
:100CB0004BF4BCBC4BF4BCBC4BF4BCBC4BF4B6BE5C
:100CC0004BF4B7BE4BF4D2BE4BF4D6BF4BF4E4BFEB
:100CD0004CF406B84CF44AB84CF46EB84CF4B2B9C3
:100CE0004CF4B6B94CF4B6B94CF4DEB94CF4DEB9F8
:100CF0004CF4DEB94CF4DEB94CF4DEB94CF4F6B980
:100D00004CF40EBA4CF428BA4CF444BA4CF45EBA23
:100D10004CF478BA4CF4AABA4CF490BA4CF435BB03
:100D20004CF435BB4CF435BB4CF44ABCFFF3A6BACB
:100D3000FFF3A6BAFFF3A6BA00F022BD00F020BD73
:100D400000F01EBD00F01CBDFFF39EBA00F018BD00
:100D5000FFF39CBA00F014BD00F012BDFFF398BA87
:100D600000F00EBDFFF396BAFFF396BA00F008BD8F
:100D7000FFF394BA00F004BDFFF392BA00F000BD97
:100D8000FFF390BA00F0FCBCFFF38EBAFFF38EBA0B
:100D900000F0F6BCFFF38CBAFFF38CBAFFF38CBA09
:100DA000FFF38CBAFFF38CBAFFF38CBAFFF38CBA63
:100DB000FFF38CBAFFF38CBAFFF38CBAFFF38CBA53
:100DC000FFF38CBAFFF38CBAFFF38CBAFFF38CBA43
:100DD000FFF38CBAFFF38CBAFFF38CBAFFF38CBA33
:100DE000FFF38CBAFFF38CBAFFF38CBAFFF38CBA23
:100DF000FFF38CBAFFF38CBAFFF38CBAFFF38CBA13
:100E0000FFF38CBAFFF38CBAFFF38CBAFFF38CBA02
:100E1000FFF38CBAFFF38CBAFFF38CBAFFF38CBAF2
:100E2000FFF38CBAFFF38CBAFFF38CBAFFF38CBAE2
:100E3000FFF38CBAFFF38CBAFFF38CBAFFF38CBAD2
:100E4000FFF38CBAFFF38CBAFFF38CBAFFF38CBAC2
:100E5000FFF38CBAFFF38CBAFFF38CBA00F090BCAE
:100E600000F08EBC00F08CBCFFF386BAFFF386BAAC
:100E7000FFF386BAFFF386BA00F082BC00F080BCB4
:100E8000FFF382BAFFF382BAFFF382BAFFF382BAAA
:100E9000FFF382BAFFF382BAFFF382BAFFF382BA9A
:100EA000FFF382BAFFF382BAFFF382BAFFF382BA8A
:100EB000FFF382BAFFF382BAFFF382BAFFF382BA7A
:100EC000FFF382BAFFF382BAFFF382BAFFF382BA6A
:100ED000FFF382BAFFF382BAFFF382BAFFF382BA5A
:100EE000FFF382BAFFF382BAFFF382BAFFF382BA4A
:100EF000FFF382BAFFF382BAFFF382BAFFF382BA3A
:100F0000FFF382BAFFF382BAFFF382BAFFF382BA29
:100F1000FFF382BAFFF382BAFFF382BAFFF382BA19
:100F2000FFF382BAFFF382BAFFF382BAFFF382BA09
:100F3000FFF382BAFFF382BAFFF382BAFFF382BAF9
:100F4000FFF382BAFFF382BAFFF382BAFFF382BAE9
:100F5000FFF382BAFFF382BAFFF382BAFFF382BAD9
:100F6000FFF382BAFFF382BAFFF382BAFFF382BAC9
:100F7000FFF382BAFFF382BAFFF382BAFFF382BAB9
:100F8000FFF382BAFFF382BAFFF382BAFFF382BAA9
:100F9000FFF382BAFFF382BAFFF382BAFFF382BA99
:100FA000FFF382BAFFF382BAFFF382BAFFF382BA89
:100FB000FFF382BAFFF382BAFFF382BAFFF382BA79
:100FC000FFF382BAFFF382BAFFF382BAFFF382BA69
:100FD000FFF382BAFFF382BAFFF382BAFFF382BA59
:100FE000FFF382BAFFF382BA00F0CABB00F0C8BBBD
:100FF00000F0C6BB00F0C4BB00F0C2BB00F0C0BB39
:1010000000F0BEBB00F0BCBB00F0BABB00F0B8BB48
:1010100000F0B6BB00F0B4BB00F0B2BB00F0B0BB58
:1010200000F0AEBB00F0ACBB00F0AABB00F0A8BB68
:1010300000F0A6BB00F0A4BB00F0A2BB4CF4F8BBD0
:101040004CF414BC4CF42CBC4CF430BC4CF446BCFA
:1010500000F096BB00F094BB4CF446BC00F090BB93
:101060004CF416BC4CF418BD4CF422BD4CF41BBE21
:101070004CF418BE4CF414BEFFF344BAFFF344BA68
:10108000FFF344BA4CF424BD4CF43CBDFFF344BA26
:101090004CF448BDFFF344BAFFF344BAFFF344BA3B
:1010A0004CF484BD4CF49ABDFFF344BA4CF4AEBD8D
:1010B0004CF4FABDFFF344BAFFF344BA4CF40CBF4E
:1010C0004CF478BC4CF4BEBD4CF4C6BC4CF452BDE0
:1010D0004CF440BC4CF422BC4CF4A0BC00F050BB1F
:1010E000FFF342BA4CF414BC4CF4AABC4CF442BE1C
:1010F0004CF42CBF4CF42BBF4CF462BF4CF480BFBB
:101100004CF49ABF4CF4BCBF4CF4D8BF4CF4FABFBB
:101110004DF434B84DF43EB84DF41AB850F4F2BE64
:1011200050F4E0BE51F450B851F45FB851F465B8D2
:1011300051F473B851F49CBE51F494BE50F4B4BE53
:1011400051F4E0B852F4C6BFFFF318BAFFF318BA6F
:10115000FFF31CBAFFF31CBAFFF31EBAFFF31EBA6B
:10116000FFF31EBAFFF31EBAFFF31EBAFFF31EBA57
:10117000FFF31EBAFFF31EBAFFF31EBAFFF31EBA47
:10118000FFF31EBAFFF31EBAFFF31EBAFFF31EBA37
:10119000FFF31EBAFFF31EBAFFF31EBAFFF31EBA27
:1011A000FFF31EBAFFF31EBAFFF31EBAFFF31EBA17
:1011B000FFF31EBAFFF31EBAFFF31EBAFFF31EBA07
:1011C000FFF31EBAFFF31EBAFFF31EBAFFF31EBAF7
:1011D000FFF31EBAFFF31EBAFFF31EBAFFF31EBAE7
:1011E000FFF31EBAFFF31EBA52F4AEBFFFF31CBAF0
:1011F000FFF31CBAFFF31CBAFFF31CBAFFF31CBACF
:10120000FFF31CBAFFF31CBAFFF31CBAFFF31CBABE
:1012100055F4B0BCFFF31CBAFFF31CBAFFF31CBAC1
:10122000FFF31CBAFFF31CBAFFF31CBAFFF31CBA9E
:10123000FFF31CBAFFF31CBAFFF31CBAFFF31CBA8E
:10124000FFF31CBAFFF31CBAFFF31CBAFFF31CBA7E
:10125000FFF31CBAFFF31CBAFFF31CBAFFF31CBA6E
:10126000FFF31CBAFFF31CBAFFF31CBAFFF31CBA5E
:10127000FFF31CBAFFF31CBAFFF31CBAFFF31CBA4E
:10128000FFF31CBAFFF31CBAFFF31CBAFFF31CBA3E
:10129000FFF31CBAFFF31CBAFFF31CBAFFF31CBA2E
:1012A000FFF31CBAFFF31CBAFFF31CBAFFF31CBA1E
:1012B000FFF31CBAFFF31CBAFFF31CBAFFF31CBA0E
:1012C000FFF31CBAFFF31CBAFFF31CBAFFF31CBAFE
:1012D000FFF31CBAFFF31CBAFFF31CBAFFF31CBAEE
:1012E000FFF31CBAFFF31CBAFFF31CBAFFF31CBADE
:1012F000FFF31CBAFFF31CBA52F4FDBEFFF31ABA97
:10130000FFF31ABAFFF31ABAFFF31ABAFFF31ABAC5
:10131000FFF31ABAFFF31ABAFFF31ABAFFF31ABAB5
:10132000FFF31ABAFFF31ABAFFF31ABAFFF31ABAA5
:10133000FFF31ABAFFF31ABAFFF31ABAFFF31ABA95
:10134000FFF31ABAFFF31ABAFFF31ABAFFF31ABA85
:10135000FFF31ABAFFF31ABAFFF31ABAFFF31ABA75
:0813600052F4FABE52F4FEBE85
:1014000000800520B9160504891B05040142050466
:1014100000420504004205040042050400000000EB
:10142000000000000000000000000000E1CD030407
:1014300000420504000000000B39050429390504A9
:101440002D3505044B35050469350504873505043C
:10145000A5350504C3350504E1350504FF3505044C
:101460001D3605043B360504593605047736050458
:1014700095360504B3360504D1360504EF36050468
:101480000D3705042B370504493705046737050474
:1014900085370504A3370504C1370504DF37050484
:1014A000FD3705041B380504393805045738050491
:1014B0007538050493380504B1380504CF380504A0
:0414C000ED380504FA
:101600004AF48ABF4AF4B6BB4BF4C1BE58F442BE9A
:101610004BF4BBBE00F42CB94CF484BA4BF480BD3F
:101620004BF416BD4BF412BD4BF414BD4CF4BEBAD2
:101630004DF476B853F464BA50F454BC50F462BC20
:101640004BF434BD4BF430BD53F4E1BA54F4FCBE5A
:1016500054F400BF4BF44ABD53F4D6BA52F421BE41
:1016600058F47CBD4FF4BEBC4CF4B8BA4BF4AEBDDC
:101670004EF4EEBD54F442BF4EF434B84BF41ABEEF
:101680004BF442BE4DF466B84DF484B84FF4CCBA76
:101690004EF4ECB953F4D4BF4AF477BB4EF448BED1
:1016A0004EF41EBE4FF4B6BC4DF4F4B84BF4E4BD9A
:1016B00053F4B0BA53F4ECBA55F47CB955F44AB9C2
:1016C00000F4FEBA55F4C6B855F4D2B855F4B6B81D
:1016D0004BF4D0BC4BF400BE52F44ABD52F468BD8A
:1016E0004BF410BE53F43ABE53F43EBE54F474BAF5
:1016F00054F4C4BA54F432BB54F478BA54F4CCBAA7
:0C17000053F43ABF54F458BA50F4CEBB76
:1017400010B5054C237833B9044B13B10448AFF3FB
:1017500000800123237010BDC0B4032000000000EE
:10176000ECAC060408B5034B1BB103490348AFF3C7
:10177000008008BD00000000C4B40320ECAC0604E7
:10178000704653F49BBAEC46A0E8F00FA0E8005076
:10179000EFF3148CC0F800C04FF000007047002930
:1017A00008BF0131B0E8F00FB0E80050026892F0D5
:1017B000020F0CBF8CF309888CF3088882F314881D
:1017C000080070470000000000000000000000005A
:1017D00001F0FF01102A2BDB10F0070F08D010F8E2
:1017E000013B013A8B422DD010F0070F42B3F6D1E6
:1017F000F0B441EA012141EA014122F007047FF0FF
:1018000000070023F0E80256083C85EA010586EA55
:10181000010685FA47F5A3FA87F586FA47F6A5FA91
:1018200087F68EB9EED1F0BC01F0FF0102F007029D
:1018300032B110F8013B013A83EA010313B1F8D148
:101840000020704701387047002D06BF3546033829
:10185000073815F0010F07D1013015F4807F02BF62
:10186000013015F4C03F0130F0BC0138704700BFB3
:10187000844641EA000313F003036DD1403A41D39B
:1018800051F8043B40F8043B51F8043B40F8043B5A
:1018900051F8043B40F8043B51F8043B40F8043B4A
:1018A00051F8043B40F8043B51F8043B40F8043B3A
:1018B00051F8043B40F8043B51F8043B40F8043B2A
:1018C00051F8043B40F8043B51F8043B40F8043B1A
:1018D00051F8043B40F8043B51F8043B40F8043B0A
:1018E00051F8043B40F8043B51F8043B40F8043BFA
:1018F00051F8043B40F8043B51F8043B40F8043BEA
:10190000403ABDD2303211D351F8043B40F8043B89
:1019100051F8043B40F8043B51F8043B40F8043BC9
:1019200051F8043B40F8043B103AEDD20C3205D399
:1019300051F8043B40F8043B043AF9D2043208D091
:10194000D2071CBF11F8013B00F8013B01D30B8803
:1019500003806046704700BF082A13D38B078DD0E1
:1019600010F003038AD0C3F10403D21ADB071CBFB3
:1019700011F8013B00F8013B80D331F8023B20F81D
:10198000023B7BE7043AD9D3013A11F8013B00F856
:10199000013BF9D20B7803704B7843708B788370DE
:1019A00060467047000000000000000000000000DA
:1019B0000000000000000000000000000000000027
:1019C000A2EB0300704700BF02780B78012A28BF02
:1019D0009A42F5D16DE9044540EA0104CDE9026778
:1019E0006FF0000C4FEA447212B380EA010414F065
:1019F000070F6AD100F0070420F0070004F0030588
:101A000021F007014FEAC505F0E8042314F0040FA4
:101A1000F1E804670CFA05F462EA040266EA0406D7
:101A20000AD063EA0403624667EA0407664603E0F5
:101A3000F0E80423F1E8046782FA4CF582EA060430
:101A4000A4FA8CF46CBB83FA4CF583EA0705A5FA7B
:101A50008CF595B950E9022351E9026782FA4CF5F9
:101A600082EA0604A4FA8CF483FA4CF583EA0705AB
:101A7000A5FA8CF52543DBD09CB92DBAB5FA85F4CF
:101A800024F0070427FA04F1DDE9026723FA04F3DE
:101A900003F0FF0001F0FF01FDE80445A0EB0100A9
:101AA000704724BAB4FA84F424F0070426FA04F147
:101AB000DDE9026722FA04F202F0FF0001F0FF0103
:101AC000FDE80445A0EB0100704714F0030F3CD182
:101AD00010F0030428D150F8082B51F8083B82FA83
:101AE0004CF582EA0305A5FA8CF55DB950F8042C93
:101AF00051F8043C82FA4CF582EA0305A5FA8CF50C
:101B0000002DE8D02DBAB5FA85F424F0070423FAA5
:101B100004F122FA04F202F0FF0001F0FF01FDE8F7
:101B20000445A0EB010070474FEAC40420F0030015
:101B300050F8082B21F0030151F8083B0CFA04F48B
:101B400062EA040263EA0403C9E710F003041AD04E
:101B5000A1EB040120F00300E40750F8042B06D0A9
:101B60000FD28B785FFAA2F4E41A06D12BB1CB78AE
:101B70005FFAB2F4E41A00D11BB920465DF8104BAD
:101B8000704701F1040150F8042BCC0721F0030148
:101B900051F8043B48D824D222F07F4482FA4CF515
:101BA00094EA1325A5FA8CF50AD165B951F8043BDE
:101BB00084EA0204B4EB036F0ED150F8042BEBE778
:101BC0004FEA132355E035F07F454DD10878FDE805
:101BD0000445C0F1000070474FEA126203F0FF03B2
:101BE00047E002EA1C4482FA4CF594EA1345A5FA50
:101BF0008CF50AD165B951F8043B84EA0204B4EBD0
:101C0000034F0CD150F8042BEBE74FEA134330E0BD
:101C100015EA1C4528D10B884FEA124229E04FEA09
:101C2000124203EA1C4324E002F0FF0482FA4CF55E
:101C300094EA1365A5FA8CF50AD165B951F8043B0D
:101C400084EA0204B4EB032F09D150F8042BEBE72C
:101C50004FEA13630DE015F0FF0F05D10B684FEA53
:101C6000122223F07F4304E04FF00000FDE804451A
:101C7000704712BA1BBA82FA4CF482EA0304A4FA3F
:101C80008CF5B5FA85F402FA04F203FA04F34FEA8C
:101C90001260FDE80445A0EB1360704700000000EF
:101CA0000000000000000000000000000000000034
:101CB0000000000000000000000000000000000024
:101CC00090F800F06DE9024520F007016FF0000C7C
:101CD00010F0070491F820F040F049804FF0000424
:101CE0006FF00700D1E9002391F840F000F10800FF
:101CF00082FA4CF2A4FA8CF283FA4CF3A2FA8CF337
:101D00004BBBD1E9022382FA4CF200F10800A4FA9D
:101D10008CF283FA4CF3A2FA8CF3E3B9D1E90423F1
:101D200082FA4CF200F10800A4FA8CF283FA4CF328
:101D3000A2FA8CF37BB9D1E9062301F1200182FAE2
:101D40004CF200F10800A4FA8CF283FA4CF3A2FAE8
:101D50008CF3002BC6D0002A04BF04301A4612BAF6
:101D6000B2FA82F2FDE8024500EBD2007047D1E9F9
:101D7000002304F00305C4F100004FEAC50514F088
:101D8000040F91F840F00CFA05F562EA05021CBF59
:101D900063EA050362464FF00004A9E781F00041C1
:101DA00002E000BF83F0004330B54FEA41044FEA40
:101DB000430594EA050F08BF90EA020F1FBF54EADB
:101DC000000C55EA020C7FEA645C7FEA655C00F077
:101DD000E2804FEA5454D4EB5555B8BF6D420CDD48
:101DE0002C4480EA020281EA030382EA000083EACB
:101DF000010180EA020281EA0303362D88BF30BD6B
:101E000011F0004F4FEA01314FF4801C4CEA1131C0
:101E100002D0404261EB410113F0004F4FEA03331F
:101E20004CEA133302D0524263EB430394EA050FAA
:101E300000F0A780A4F10104D5F1200E0DDB02FA19
:101E40000EFC22FA05F2801841F1000103FA0EF2AD
:101E5000801843FA05F359410EE0A5F120050EF173
:101E6000200E012A03FA0EFC28BF4CF0020C43FAA4
:101E700005F3C01851EBE37101F0004507D54FF0B1
:101E8000000EDCF1000C7EEB00006EEB0101B1F501
:101E9000801F1BD3B1F5001F0CD349085FEA300047
:101EA0004FEA3C0C04F101044FEA445212F5800F52
:101EB00080F09A80BCF1004F08BF5FEA500C50F1EF
:101EC000000041EB045141EA050130BD5FEA4C0CD2
:101ED000404141EB0101013C28BFB1F5801FE9D22F
:101EE00091F0000F04BF01460020B1FA81F308BF52
:101EF0002033A3F10B03B3F120020CDA0C3208DD1E
:101F000002F1140CC2F10C0201FA0CF021FA02F1F8
:101F10000CE002F11402D8BFC2F1200C01FA02F168
:101F200020FA0CFCDCBF41EA0C019040E41AA2BF8D
:101F300001EB0451294330BD6FEA04041F3C1CDA55
:101F40000C340EDC04F11404C4F1200220FA04F075
:101F500001FA02F340EA030021FA04F345EA03011F
:101F600030BDC4F10C04C4F1200220FA02F001FAE1
:101F700004F340EA0300294630BD21FA04F0294663
:101F800030BD94F0000F83F4801306BF81F48011FC
:101F90000134013D4EE77FEA645C18BF7FEA655C6F
:101FA00029D094EA050F08BF90EA020F05D054EA41
:101FB000000C04BF1946104630BD91EA030F1EBF46
:101FC0000021002030BD5FEA545C05D1400049414A
:101FD00028BF41F0004130BD14F580043CBF01F53D
:101FE000801130BD01F0004545F0FE4141F4700123
:101FF0004FF0000030BD7FEA645C1ABF19461046FE
:102000007FEA655C1CBF0B46024650EA013406BFFE
:1020100052EA033591EA030F41F4002130BD00BFBD
:1020200090F0000F04BF0021704730B54FF480647A
:1020300004F132044FF000054FF0000150E700BFFB
:1020400090F0000F04BF0021704730B54FF480645A
:1020500004F1320410F0004548BF40424FF0000147
:102060003EE700BF42004FEAE2014FEA31014FEA8A
:1020700002701FBF12F07F4393F07F4F81F06051D9
:10208000704732F07F4208BF704793F07F4F04BF24
:1020900041F40021704730B54FF4607401F0004501
:1020A00021F000411CE700BF50EA010208BF704761
:1020B00030B54FF000050AE050EA010208BF704752
:1020C00030B511F0004502D5404261EB41014FF4BB
:1020D000806404F132045FEA915C3FF4D8AE4FF0C3
:1020E00003025FEADC0C18BF03325FEADC0C18BFA6
:1020F000033202EBDC02C2F1200300FA03FC20FAF7
:1021000002F001FA03FE40EA0E0021FA02F1144443
:10211000BDE600BF70B54FF0FF0C4CF4E06C1CEA5C
:1021200011541DBF1CEA135594EA0C0F95EA0C0FCD
:1021300000F0DEF82C4481EA030621EA4C5123EA40
:102140004C5350EA013518BF52EA033541F480116F
:1021500043F4801338D0A0FB02CE4FF00005E1FB22
:1021600002E506F00042E0FB03E54FF00006E1FB6C
:1021700003569CF0000F18BF4EF0010EA4F1FF04AF
:10218000B6F5007F64F5407404D25FEA4E0E6D41EF
:1021900046EB060642EAC62141EA55514FEAC52000
:1021A00040EA5E504FEACE2EB4F1FD0C88BFBCF57C
:1021B000E06F1ED8BEF1004F08BF5FEA500E50F12D
:1021C000000041EB045170BD06F0004646EA0101F3
:1021D00040EA020081EA0301B4EB5C04C2BFD4EB25
:1021E0000C0541EA045170BD41F480114FF0000E1E
:1021F000013C00F3AB8014F1360FDEBF002001F08C
:10220000004170BDC4F10004203C35DA0C341BDC05
:1022100004F11404C4F1200500FA05F320FA04F0D7
:1022200001FA05F240EA020001F0004221F000410B
:1022300010EBD37021FA04F642EB06015EEA430E7E
:1022400008BF20EAD37070BDC4F10C04C4F12005AE
:1022500000FA04F320FA05F001FA04F240EA020061
:1022600001F0004110EBD37041F100015EEA430E32
:1022700008BF20EAD37070BDC4F1200500FA05F252
:102280004EEA020E20FA04F301FA05F243EA0203D1
:1022900021FA04F001F0004121FA04F220EA0200E0
:1022A00000EBD3705EEA430E08BF20EAD37070BD26
:1022B00094F0000F0FD101F00046400041EB010106
:1022C00011F4801F08BF013CF7D041EA060195F0E8
:1022D000000F18BF704703F00046520043EB0303A2
:1022E00013F4801F08BF013DF7D043EA060370478F
:1022F00094EA0C0F0CEA135518BF95EA0C0F0CD09A
:1023000050EA410618BF52EA4306D1D181EA0301DF
:1023100001F000414FF0000070BD50EA410606BFD9
:102320001046194652EA430619D094EA0C0F02D11E
:1023300050EA013613D195EA0C0F05D152EA033663
:102340001CBF104619460AD181EA030101F0004181
:1023500041F0FE4141F470014FF0000070BD41F0CA
:10236000FE4141F4780170BD70B54FF0FF0C4CF4A4
:10237000E06C1CEA11541DBF1CEA135594EA0C0FC3
:1023800095EA0C0F00F0A7F8A4EB050481EA030E10
:1023900052EA03354FEA013100F088804FEA0333F7
:1023A0004FF0805545EA131343EA12634FEA0222C5
:1023B00045EA111545EA10654FEA00260EF0004186
:1023C0009D4208BF964244F1FD0404F5407402D2D8
:1023D0005B084FEA3202B61A65EB03055B084FEA69
:1023E00032024FF480104FF4002CB6EB020E75EB66
:1023F000030E22BFB61A754640EA0C005B084FEA8E
:102400003202B6EB020E75EB030E22BFB61A75460A
:1024100040EA5C005B084FEA3202B6EB020E75EB55
:10242000030E22BFB61A754640EA9C005B084FEACD
:102430003202B6EB020E75EB030E22BFB61A7546DA
:1024400040EADC0055EA060E18D04FEA051545EAC9
:1024500016754FEA06164FEAC30343EA52734FEA72
:10246000C2025FEA1C1CC0D111F4801F0BD141EAEB
:1024700000014FF000004FF0004CB6E711F4801F50
:1024800004BF01430020B4F1FD0C88BFBCF5E06F30
:102490003FF6AFAEB5EB030C04BFB6EB020C5FEA40
:1024A000500C50F1000041EB045170BD0EF0004E95
:1024B0004EEA113114EB5C04C2BFD4EB0C0541EAC7
:1024C000045170BD41F480114FF0000E013C90E6C4
:1024D00045EA060E8DE60CEA135594EA0C0F08BF88
:1024E00095EA0C0F3FF43BAF94EA0C0F0AD150EA87
:1024F00001347FF434AF95EA0C0F7FF425AF10461A
:1025000019462CE795EA0C0F06D152EA03353FF441
:10251000FDAE1046194622E750EA410618BF52EABE
:1025200043067FF4C5AE50EA41047FF40DAF52EA92
:1025300043057FF4EBAE12E74FF0FF3C06E000BF2F
:102540004FF0010C02E000BF4FF0010C4DF804CD3C
:102550004FEA410C7FEA6C5C4FEA430C18BF7FEAFC
:102560006C5C1BD001B050EA410C0CBF52EA430C2A
:1025700091EA030F02BF90EA020F0020704710F1AA
:10258000000F91EA030F58BF994208BF90422CBF39
:10259000D8176FEAE37040F0010070474FEA410C32
:1025A0007FEA6C5C02D150EA013C07D14FEA430C50
:1025B0007FEA6C5CD6D152EA033CD3D05DF8040BC1
:1025C000704700BF8446104662468C4619466346F3
:1025D00000E000BF01B5FFF7B7FF002848BF10F1CA
:1025E000000F01BD4DF808EDFFF7F4FF0CBF01200F
:1025F00000205DF808FB00BF4DF808EDFFF7EAFF8B
:1026000034BF012000205DF808FB00BF4DF808ED45
:10261000FFF7E0FF94BF012000205DF808FB00BF3A
:102620004DF808EDFFF7CEFF94BF012000205DF8C4
:1026300008FB00BF4DF808EDFFF7C4FF34BF0120D1
:1026400000205DF808FB00BF4FEA410C7FEA6C5C9C
:1026500002D150EA013C0AD14FEA430C7FEA6C5C9C
:1026600002D152EA033C02D14FF0000070474FF014
:10267000010070474FEA410212F5001215D211D540
:102680006FF47873B3EB625212D94FEAC12343F06F
:10269000004343EA505311F0004F23FA02F018BFF1
:1026A000404270474FF00000704750EA013005D1BA
:1026B00011F0004008BF6FF0004070474FF000007D
:1026C000704700BF4FEA4102B2F1E04324BFB3F5C7
:1026D000001CDCF1FE5C0DD901F0004C4FEAC00299
:1026E0004CEA5070B2F1004F40EB830008BF20F07D
:1026F0000100704711F0804F21D113F13872BCBF37
:1027000001F00040704741F480114FEA5252C2F18B
:102710001802C2F1200C10FA0CF320FA02F018BFD4
:1027200040F001004FEAC1234FEAD32303FA0CFC27
:1027300040EA0C0023FA02F34FEA4303CCE77FEAB6
:10274000625307D150EA01331EBF4FF0FE4040F400
:102750004000704701F0004040F0FE4040F40000AF
:10276000704700BF80F0004002E000BF81F00041F0
:1027700042001FBF5FEA410392EA030F7FEA226C27
:102780007FEA236C6AD04FEA1262D2EB1363C1BFB7
:10279000D218414048404140B8BF5B42192B88BF26
:1027A000704710F0004F40F4000020F07F4018BF49
:1027B000404211F0004F41F4000121F07F4118BF69
:1027C000494292EA030F3FD0A2F1010241FA03FC11
:1027D00010EB0C00C3F1200301FA03F100F00043F9
:1027E00002D5494260EB4000B0F5000F13D3B0F1C1
:1027F000807F06D340084FEA310102F10102FE2A30
:1028000051D2B1F1004F40EBC25008BF20F001009F
:1028100040EA03007047490040EB0000013A28BF3E
:10282000B0F5000FEDD2B0FA80FCACF1080CB2EBC1
:102830000C0200FA0CF0AABF00EBC250524218433F
:10284000BCBFD0401843704792F0000F81F40001E4
:1028500006BF80F400000132013BB5E74FEA4103B7
:102860007FEA226C18BF7FEA236C21D092EA030F23
:1028700004D092F0000F08BF0846704790EA010F9D
:102880001CBF0020704712F07F4F04D1400028BFCA
:1028900040F00040704712F100723CBF00F50000AC
:1028A000704700F0004343F0FE4040F400007047E2
:1028B0007FEA226216BF08467FEA2363014642028E
:1028C00006BF5FEA412390EA010F40F480007047A1
:1028D0004FF0000304E000BF10F0004348BF404247
:1028E0005FEA000C08BF704743F0964301464FF083
:1028F00000001CE050EA010208BF70474FF00003DF
:102900000AE000BF50EA010208BF704711F000431F
:1029100002D5404261EB41015FEA010C02BF8446EF
:102920000146002043F0B64308BFA3F18053A3F54E
:102930000003BCFA8CF2083AA3EBC25310DB01FA95
:1029400002FC634400FA02FCC2F12002BCF1004F19
:1029500020FA02F243EB020008BF20F001007047AA
:1029600002F1200201FA02FCC2F1200250EA4C00FE
:1029700021FA02F243EB020008BF20EADC70704744
:102980004FF0FF0C1CEAD0521EBF1CEAD15392EA52
:102990000C0F93EA0C0F6FD01A4480EA010C40022E
:1029A00018BF5FEA41211ED04FF0006343EA501088
:1029B00043EA5111A0FB01310CF00040B1F5000FCA
:1029C0003EBF490041EAD3715B0040EA010062F179
:1029D0007F02FD2A1DD8B3F1004F40EBC25008BF63
:1029E00020F00100704790F0000F0CF0004C08BF81
:1029F00049024CEA502040EA51207F3AC2BFD2F14E
:102A0000FF0340EAC250704740F400004FF000035B
:102A1000013A5DDC12F1190FDCBF00F00040704795
:102A2000C2F10002410021FA02F1C2F1200200FAD3
:102A300002FC5FEA310040F1000053EA4C0308BF9A
:102A400020EADC70704792F0000F00F0004C02BFEB
:102A5000400010F4000F013AF9D040EA0C0093F066
:102A6000000F01F0004C02BF490011F4000F013BC0
:102A7000F9D041EA0C018FE70CEAD15392EA0C0F2E
:102A800018BF93EA0C0F0AD030F0004C18BF31F099
:102A9000004CD8D180EA010000F00040704790F06F
:102AA000000F17BF90F0004F084691F0000F91F013
:102AB000004F14D092EA0C0F01D142020FD193EAD9
:102AC0000C0F03D14B0218BF084608D180EA010061
:102AD00000F0004040F0FE4040F40000704740F03D
:102AE000FE4040F4400070474FF0FF0C1CEAD0520B
:102AF0001EBF1CEAD15392EA0C0F93EA0C0F69D067
:102B0000A2EB030280EA010C49024FEA402037D0D1
:102B10004FF0805343EA111143EA10130CF00040C8
:102B20008B4238BF5B0042F17D024FF4000C8B42B8
:102B300024BF5B1A40EA0C00B3EB510F24BFA3EB98
:102B4000510340EA5C00B3EB910F24BFA3EB910368
:102B500040EA9C00B3EBD10F24BFA3EBD10340EAC2
:102B6000DC001B0118BF5FEA1C1CE0D1FD2A3FF608
:102B700050AF8B4240EBC25008BF20F001007047BD
:102B80000CF0004C4CEA50207F32C2BFD2F1FF0360
:102B900040EAC250704740F400004FF00003013A91
:102BA00037E792F0000F00F0004C02BF400010F435
:102BB000000F013AF9D040EA0C0093F0000F01F049
:102BC000004C02BF490011F4000F013BF9D041EA6B
:102BD0000C0195E70CEAD15392EA0C0F08D142029E
:102BE0007FF47DAF93EA0C0F7FF470AF084676E771
:102BF00093EA0C0F04D14B023FF44CAF08466EE74A
:102C000030F0004C18BF31F0004CCAD130F0004217
:102C10007FF45CAF31F000437FF43CAF5FE700BF6F
:102C20004FF0FF3C06E000BF4FF0010C02E000BF98
:102C30004FF0010C4DF804CD4FEA40024FEA41033A
:102C40007FEA226C18BF7FEA236C11D001B052EAF0
:102C5000530C18BF90EA010F58BFB2EB030088BFB6
:102C6000C81738BF6FEAE17018BF40F00100704725
:102C70007FEA226C02D15FEA402C05D17FEA236C07
:102C8000E4D15FEA412CE1D05DF8040B704700BF4E
:102C9000844608466146FFE70FB5FFF7C9FF0028E5
:102CA00048BF10F1000F0FBD4DF808EDFFF7F4FF1E
:102CB0000CBF012000205DF808FB00BF4DF808EDB7
:102CC000FFF7EAFF34BF012000205DF808FB00BFDA
:102CD0004DF808EDFFF7E0FF94BF012000205DF8FC
:102CE00008FB00BF4DF808EDFFF7D2FF94BF0120AD
:102CF00000205DF808FB00BF4DF808EDFFF7C8FFA6
:102D000034BF012000205DF808FB00BF4FEA4002FD
:102D10004FEA41037FEA226C02D15FEA402C08D1DE
:102D20007FEA236C02D15FEA412C02D14FF0000010
:102D300070474FF00100704742000ED2B2F1FE4FD3
:102D40000BD34FF09E03B3EB126209D44FEA00237A
:102D500043F0004323FA02F070474FF00000704741
:102D600012F1610F01D1420202D14FF0FF307047E2
:102D70004FF00000704700BF53B94AB9002908BF9F
:102D800000281CBF4FF0FF314FF0FF3000F06CB94E
:102D9000ADF1080C6DE904CE00F006F8DDF804E0B2
:102DA000DDE9022304B070472DE9F047089E0D4687
:102DB00004468E46002B40F082808A42174646D950
:102DC000B2FA82F24AB1C2F1200105FA02F320FA06
:102DD00001F1974041EA030E94404FEA1748230C53
:102DE000BEFBF8FCB9B208FB1CEE43EA0E430CFB39
:102DF00001F098420AD9FB180CF1FF3580F01681DA
:102E0000984240F21381ACF1020C3B441B1AA4B26D
:102E1000B3FBF8F008FB103344EA034400FB01F174
:102E2000A14209D93C1900F1FF3380F00181A14290
:102E300040F2FE8002383C44641A40EA0C40002113
:102E40001EB1D4400023C6E90043BDE8F08702B9B3
:102E5000FFDEB2FA82F2002A4FD1CB1B4FEA174EA7
:102E60001FFA87F80121B3FBFEFC250C0EFB1C3377
:102E700045EA034508FB0CF3AB4207D97D190CF179
:102E8000FF3002D2AB4200F2E7808446ED1AA3B2D3
:102E9000B5FBFEF00EFB105543EA054408FB00F8B5
:102EA000A04507D93C1900F1FF3302D2A04500F23A
:102EB000D7801846A4EB080440EA0C40C0E78B42D8
:102EC00008D9002E00F0AF800021C6E900050846B1
:102ED000BDE8F087B3FA83F100294BD1AB4202D3AE
:102EE000824200F2B780841A65EB030301209E46FC
:102EF000002EAAD0C6E9004EA7E7C2F1200C01FAC5
:102F000002F3974020FA0CF04FEA174E21FA0CFC1E
:102F10001843BCFBFEF1050C0EFB11CC1FFA87F821
:102F200045EA0C4501FB08F3AB4204FA02F409D967
:102F30007D1901F1FF3C80F08B80AB4240F288802C
:102F400002393D44EB1A85B2B3FBFEF00EFB1033A1
:102F500045EA034500FB08F3AB4207D97D1900F1B0
:102F6000FF3C71D2AB426FD902383D44EB1A40EAC4
:102F7000014178E7C1F1200C8B4022FA0CF71F4386
:102F800020FA0CF405FA01F34FEA174E25FA0CF576
:102F90001C43230CB5FBFEF91FFA87F80EFB1955ED
:102FA00043EA054509FB08FAAA4502FA01F200FACC
:102FB00001F308D97D1909F1FF3047D2AA4545D957
:102FC000A9F102093D44A5EB0A05A4B2B5FBFEF048
:102FD0000EFB105544EA054400FB08F8A04507D94C
:102FE0003C1900F1FF352DD2A0452BD902383C44C5
:102FF00040EA0940A4EB0804A0FB02894C45C64600
:103000004D4619D316D05EB1B3EB0E0264EB050446
:1030100004FA0CFCCA404CEA0202CC40C6E9002487
:103020000021BDE8F087314630460EE7AC46EDE6BC
:10303000184601E74345E6D2B8EB020E69EB0705F7
:103040000138E0E72846D3E760468FE78146BAE7D4
:10305000614677E708464BE7ACF1020C3D4415E7C3
:1030600002383C4426E700BF704700BF0368087879
:1030700018470000012A05D0022A06D01AB9044BCD
:10308000036000E00160002070470B68F8E700BFB4
:1030900004FF050418B9054A022112F027B80128D7
:1030A00003D1034A02210020F7E7704744FB0504DF
:1030B00052FB050430B5058885B0044665B915484E
:1030C00000F046FB144B0122DA70014600951148CE
:1030D0002B462A4600F0EAFB2588022D18D1637999
:1030E000B3B100240B488DF80F4000F036FB4028A8
:1030F000094A08480CBFFF2340238DF80F300123F5
:10310000D3700DF10F0200922946224600F0CEFB4B
:1031100005B030BDB4E70320ACE7032010B58368E9
:10312000044613B1032201469847204610BD000013
:103130001FB50024114A124B009410210A2012F0EE
:10314000B7F8104A106030B90F4A012111F0CEFFD4
:103150000B2004B010BD0D4B02930D4B01930123C6
:1031600000930C490C4823464FF4007212F0E4FC23
:10317000002814BF00200B20EBE700BFBEDE0320B9
:1031800060DF0320B8DE032062FB050464DE032059
:10319000ACDF032085FB05043136000410B5054B78
:1031A000054904461868036822469B69984700232E
:1031B000A37010BDDC4204202D33000470B50B4B0E
:1031C0000B4A0446186803685D692346A84710B98E
:1031D0000123A37070BD11F03DFEBDE870400346B1
:1031E000044A0121002011F081BF00BFDC4204200D
:1031F0002D33000489FB050470B50379042B0DD130
:1032000042791D4C012AA37809D13BB965782DB9C3
:1032100040F2DC512046FFF7D1FF657070BD002BF6
:10322000FCD0657855B92046FFF7B8FF134A6570A2
:1032300001212846BDE8704011F058BF012D11D181
:103240002046FFF7ABFF00250D4865701CF06CFFB2
:1032500011F000FE0B4A034602212846BDE87040EB
:1032600011F044BF022DD9D12046FFF797FF00206F
:10327000054A60702946DDE7ACE70320A0FB0504A2
:10328000605E0420C9FB0504E5FB050408B5084B96
:10329000186850B10023012212F052F838B9054ADB
:1032A000BDE80840012111F021BF034AF8E708BD3D
:1032B000B8DE032005FC050432FC050430B5C31E4E
:1032C000012B87B004460D4600D9D8B92346134ACE
:1032D00000950221002011F009FF1022002102A810
:1032E00056F0D8FF0023032CADF808308DF80C40C1
:1032F0008DF80D5008D12DB1094B0A48059302A94C
:10330000FFF7C4FF07B030BD1CB90223ADF8083089
:10331000F2E7042CF6D1044BEFE700BF5AFC05049A
:10332000B5300004ACE70320F93100041FB50123D8
:10333000ADF800300191044B044803936946FFF750
:10334000A5FF05B05DF804FBA5340004ACE703203D
:10335000CB68084603B11847024A0121184611F00C
:10336000C5BE00BF74FC05041FB5194A0221002028
:1033700011F0BCFE174800F0EBF90DF10F0410231B
:103380008DF80F00019300944023002206210120B4
:1033900005F076FF034620B10F4A0121002011F00D
:1033A000A5FE0C4800F0D9F92023CDE900438DF8A3
:1033B0000F00402300220821012005F061FF034691
:1033C00020B1064A0121002011F090FE04B010BD8A
:1033D000A4FC0504B4E70320B7FC0504D1FC0504F4
:1033E00010B560B9094A022111F080FE084CE3785B
:1033F00023B12046FFF7B8FF0023E37010BD01287A
:10340000F4D1044A02210020EEE700BFEAFC0504E3
:10341000ACE703200DFD050413B50D4C217889B1EF
:10342000002300931A4601F001010A4800F03EFA19
:10343000237809490948013B237002B0BDE81040D8
:10344000FDF36AB0064802B0BDE810401BF002B9B7
:1034500060DE0320B4E703201934000440420F006B
:10346000D0A9032010B500F048FC0B4A04460346DF
:103470000221002011F03AFE0A2C0BD1074A02214A
:10348000002011F033FE064B05221A70BDE81040F3
:10349000FFF7C2BF10BD00BF31FD050442FD0504AA
:1034A00060DE032070B50688012E3BD11E4CA37848
:1034B000C3B365788DB928461C4A022111F016FE67
:1034C000284602211A4A11F011FE6670204640F685
:1034D000B831BDE87040FFF771BE012D19D1154A12
:1034E00040F6B8330221002011F000FE204640F6DD
:1034F000B831FFF763FE022300212846637050F0C5
:103500000BFD4FF4FA7228461146BDE8704050F0AA
:1035100057BD022D06D1002363700748BDE87040F7
:103520001BF098B870BD00BFACE703205BFD05043D
:1035300085FD0504A3FD0504D0A9032070B52E4B1D
:103540002E4A88B002210546002011F0CFFD2C48FC
:1035500000F0E0F8044638B100202A4A012111F0B9
:10356000C5FD204608B070BD274B284A0093284B64
:10357000284923480392CDE90632049104AA6946FA
:10358000029300F079F904A8FFF7C8FD224E6846BF
:10359000FFF7C4FD214850F045FD41F2AE5341F222
:1035A000A452214630460DF083FD30F00BFD30F083
:1035B00011FC2846FFF7D8FE19481AF017FF4FF004
:1035C00002000DF08FFB41F24933F55C65B92A46E4
:1035D0004FF6FF7113480CF0E1FC134A0221284614
:1035E00011F084FD0020BDE7104A2B460221204641
:1035F00011F07CFDF6E700BFE2FD0504EBFD0504DC
:10360000B4E7032008FE0504953000046D30000483
:1036100075300004E1330004B8FF0320BD3200041C
:10362000D0A903200014042024FE050452FE050442
:103630007FB52848FFF782FF034620B1264A0121C3
:10364000002011F053FD254A254C224D0221002077
:1036500011F04CFD264620680A22694611F0EEFF63
:10366000012807D169462846FFF772FE306800221C
:103670006946F3E71B481BF0C8F9A0B11A481BF0D4
:103680004CFE1A4B187018481BF0FBFD184B1870B5
:1036900018481BF061F8184B003818BF012018704B
:1036A00010481BF0BBF96B78022BD4D00F4B1B7862
:1036B0001BB10F4B1B78002BCDD10F4B1B782BB1BF
:1036C00064221146012050F07BFCC4E740F2B63280
:1036D0003221F7E7ACE703208AFE0504A5FE0504C6
:1036E000B8DE03205C430420605E0420A8DF0320D2
:1036F000BCDE032054430420BDDE032010B5044685
:103700002030FFF70BFD04F11000FFF707FD204606
:1037100010BD000038B544F2010343800B4B044652
:10372000002518686060FF23A372258145F23B42A3
:1037300045F20F01402000F065FBC0F30723E07263
:10374000C0F3074060732373284638BDD0FF0504DB
:103750008078B0FA80F040097047C0787047000068
:103760001FB5437B0393037B0293C37A0193C37812
:10377000009304468378094A0221002011F0B6FC28
:10378000E07A627B217B50F087FCA078B0FA80F071
:10379000400904B0BDE8104050F05ABC14FF0504C5
:1037A00010B504460846E170E288A18800F02AFBC3
:1037B000E072C0F30723C0F3074060732373204611
:1037C000BDE81040FFF7CCBF10B504468180C28031
:1037D000C07800F017FBE072C0F30723C0F3074086
:1037E000607323732046BDE81040FFF7B9BF10B5E2
:1037F000C3788372017242720446806800F0C4FA92
:10380000E072C0F30723C0F30740607323732046C0
:10381000BDE81040FFF7A4BF81F001018170FFF700
:103820009FBF70B586B0002304938B6804460E4694
:1038300002AD33B1022228469847F3680593B36876
:10384000049395E803006B4683E8030094E80300C3
:1038500085E8030093E80300049BA268A360059B2E
:10386000049284E80300E268E36028460592FFF7CB
:1038700055FC204606B070BD38B5044615461030DC
:10388000FFF7CFFF294604F12000FFF7CAFF38BD3C
:1038900007B582688DF807100AB955F065FEC36850
:1038A0000DF10701984703B05DF804FB2DE9F04FD7
:1038B00085B00027DDF8388004460D46BB46B94682
:1038C000BA46042961D8DFE801F003343C465500CC
:1038D000474A8178474B002918BF1346464A0221C0
:1038E000002011F003FCA378012B54D1002D56D0F9
:1038F000022D56D198F80060E378B34274D0B6FA3E
:1039000086F67609A36923B1294604F11000FFF772
:10391000BFFF022D52D198F800102046FFF740FF5C
:10392000A36A23B1294604F12000FFF7B1FF01206B
:103930005BE02F4A81782F4B002918BF13462F4A8E
:10394000CDE798F800300093C3782D4A022100207B
:1039500011F0CCFBC7E7B8F800B0B8F80270294AFC
:10396000CDE901B7C388009383880221002011F0BC
:10397000BDFBB8E798F8009098F801A0224ACDE97D
:10398000019A437A0093037AEFE7204A022100204C
:1039900011F0ACFBA7E7002BAAD1012DA8D12E4630
:1039A000B0E7032D05D157EA0B030CBF0126002613
:1039B000A8E7042D18D159EA0A03F6E7032D05D12B
:1039C0003A4659462046FFF7FFFEA9E7042D05D1E8
:1039D000524649462046FFF70AFFA1E786F001015B
:1039E0002046FFF719FF9BE7002005B0BDE8F08FE8
:1039F0005EFF050449FF050438FF05044CFF05047C
:103A000062FF05047DFF05049DFF0504BEFF05045C
:103A10000348044A044900238361836255F0D0BB04
:103A2000B4E70320B8A80320FD3600047FB5D0E931
:103A30000124062A089E1D460CD1002C62D1317843
:103A40000096B1FA81F1224649094248FFF72EFF5C
:103A500004B070BD082A14D1002C53D1012B0AD117
:103A600033783D4A02211D2011F040FB00962B4681
:103A700022460221E9E7394A01211D2011F036FBD7
:103A8000E6E7B2F5407F3DD1022CE1D044F20103DC
:103A90009C42DDD0082CDBD0E31E012B00880AD924
:103AA000012C34D9A3B22E4A0093230C02211D20ED
:103AB00011F01CFBCCE7022D46D1032C338815D125
:103AC0000DF10E01ADF80C300AF0EDF9BDF80E3035
:103AD000244A00930221BDF80C301D2011F006FB92
:103AE00003AB0093002204230321AEE703A9ADF842
:103AF0000E300AF0BDF9E9E703A98DF80D300AF0A0
:103B000073F911E093B20093130C174ACEE7022D1C
:103B1000DCD0012D1AD13378002CEDD10DF10D013F
:103B20008DF80C300AF07BF99DF80D300F4A0093A8
:103B300002219DF80C301D2011F0D8FA03AB009340
:103B400000220323042180E7012DEDD0084A2B46F3
:103B500092E700BFB4E70320D4FF0504E2FF0504A9
:103B6000FDFF05042100060472000604350006046A
:103B70004A0006040148FFF7F7BB00BFACE703208B
:103B800008B50D4A0221002011F0B0FA0B4A0221BB
:103B9000002011F0ABFA0020074A022111F0A6FA2A
:103BA0000748FFF7C5FA30B10020064A012111F09D
:103BB0009DFA4FF0FF3008BD94000604B1000604E2
:103BC000ACE70320CE000604002170B5084611F0D2
:103BD00027F9044630B1244A0121002011F086FA69
:103BE000204670BD214D224A022111F07FFA2E7825
:103BF00056B928461BF09AF8041E0CBF0123002377
:103C00002B7001D01B4AE7E71B4A0221002011F06C
:103C10006DFA1A481CF03BF80446054608B1184AEC
:103C2000DAE7164803211BF0E3FB044618B1154AF6
:103C300001212846D2E7144A022111F057FA13480D
:103C40001BF072FA0446054608B1114AC4E7114A4E
:103C5000022111F04BFA10481AF066FF04460028C2
:103C6000BED00E4AE4E700BFE90006045843042032
:103C700007010604170106043C010604605E0420E7
:103C80005A01060484010604B3010604C86704202F
:103C9000CC010604F60106045C4304201B02060462
:103CA00008B50BF091FD00280ADB00F03BF8FFF7A8
:103CB0008BFF28B9FFF764FF002801DB12F08CF8B6
:103CC000002008BD70B586B00B46024601AC00F17D
:103CD000100610685168254603C50832B2422C46CA
:103CE000F7D1106828600BB9029B23B100221A702B
:103CF000012006B070BD1846FBE707B500210DF1A5
:103D00000602382048F095FE00210DF10702382008
:103D10008DF8071048F08AFE9DF8060003B05DF8A4
:103D200004FB00001FB51448012148F073FE49F060
:103D300041FD032819D10DF10F020021382048F070
:103D400078FE9DF80F300D4A0093012100233820A2
:103D500048F0E2FB9DF80F300DF10F020133002116
:103D600038208DF80F3048F061FE05490548FCF316
:103D7000D3F305B05DF804FB5402060445020604C3
:103D80006534000480841E007FB5C0F30723C0F3B0
:103D90000741C3F16403C2B23C2613FB01F3642064
:103DA0009BB2B3FBF0F3B2FBF6F0CD1ADCB206FB2C
:103DB0001023DBB213FB05F3421E9BB2B3FBF6F3F9
:103DC000DBB2032A03D8DFE802F0070B16192344FD
:103DD00022460C46D9B205E0CB1A2246DCB201E0FD
:103DE0002344DAB2002064F3070061F30F2062F38A
:103DF000174004B070BDCB1A0A46EBE70A462344CD
:103E00002146EBE72DE9F341064608461446FEF746
:103E10005FFD8A49FEF768FE05462046FEF758FD1D
:103E20008649FEF761FE04463046FEF751FD84499F
:103E3000FEF75AFE21460646FEF756FE2946804604
:103E4000FEF79EFD294607464FF07E50FEF78EFC9A
:103E50002146FEF78BFC4146FEF792FD7949044668
:103E60003846FEF741FE774980463046FEF73CFE75
:103E7000744907462046FEF737FE7349044640461C
:103E8000FEF77EFD714905463846FEF779FD01468D
:103E90002846FEF76BFC6E4905462046FEF770FD8E
:103EA00001462846FEF762FC6A4906463846FEF798
:103EB00067FD694905464046FEF762FD0146284612
:103EC000FEF754FC654905462046FEF759FD0146BC
:103ED0002846FEF74DFC624905464046FEF750FD78
:103EE000604980463846FEF74BFD01464046FEF7E6
:103EF0003DFC5D4907462046FEF742FD0146384637
:103F0000FEF736FC594904463046FEF7E1FE00282C
:103F100063D057493046FEF733FD064653492846DD
:103F2000FEF7D6FE002863D051492846FEF728FD4B
:103F300005464E492046FEF7CBFE002863D04C498B
:103F40002046FEF71DFD044600213046FEF7B6FE72
:103F5000002863D14FF07E513046FEF7CDFE002899
:103F60005ED100212846FEF7A9FE00285BD14FF064
:103F70007E512846FEF7C0FE002856D1002120467B
:103F8000FEF79CFE002853D14FF07E512046FEF7ED
:103F9000B3FE00284ED137493046FEF7F1FCFEF75C
:103FA000CBFE344906462846FEF7EAFCFEF7C4FE7F
:103FB000304905462046FEF7E3FCFEF7BDFEF6B2AB
:103FC000002366F30703EDB265F30F23C0B260F37D
:103FD0001743184602B0BDE8F081274930465AF031
:103FE000BDF92649FEF7CCFC2549FEF7BFFB94E757
:103FF000214928465AF0B2F92049FEF7C1FC204970
:10400000FEF7B4FB94E71C4920465AF0A7F91B4978
:10401000FEF7B6FC1A49FEF7A9FB94E70026A0E7D5
:104020004FF07E569DE70025A8E74FF07E55A5E7A7
:104030000024B0E74FF07E54ADE700BF00FF7F479C
:1040400000007E430000C842FE654F40F8C2C43FF6
:104050008048FF3E371AF03FD509783FE7FB293DFE
:10406000AF25643D60E5503EC74B873F1C2E4D3B5E
:1040700052B84E4100007F435555D53E3D0A873F1B
:10408000AE47613D2DE9F0430221566899B01546CF
:104090001D202D4A11F02AF82C4A41F25443D35CDA
:1040A000002B49D1AB68502B46D12B69284AA3F588
:1040B0007A71914240D8AA69103A102A3CD8B5F8D2
:1040C00000E0BEF5617F37D8AA89B2F5805F33D2B0
:1040D00004AF344606F12809B84620686168BC463A
:1040E000ACE8030008344C456746F6D10DF1380CB6
:1040F000503620686168674603C70834B442BC463E
:10410000F7D1A98B0391D5E9050101AC84E803003F
:1041100000931048434671460BF059FF044658B9C6
:104120001D200D4A022110F0E1FF204606F0CAF9D9
:10413000012019B0BDE8F08301231D20074A19466C
:1041400010F0D4FF0120F1E768020604B8FF032055
:10415000B88201000014042096020604B702060487
:1041600010B5022114461D20114A10F0BFFF114A5C
:1041700041F25443D25C92B92188B1F5617F0ED8E7
:104180000D480BF00BFF044648B91D200B4A0221D5
:1041900010F0ACFF204606F095F9012010BD012378
:1041A0001D20074A194610F0A1FF0120F3E700BFC8
:1041B000E6020604B8FF0320001404209602060459
:1041C000B702060408B5094A02211D2010F08EFF2F
:1041D00007480BF0ADFD074A02211D2010F086FFB5
:1041E000002006F06FF9012008BD00BF1A03060485
:1041F000001404204903060470B5B8B004AD0446A9
:1042000021224A48294619F0DDFF90B92846FDF7DA
:1042100057FD2946CDE927500246204609F00DFDFD
:10422000034630B1424A01211D2010F05FFF38B033
:1042300070BD3E480DF1020119F09EFF40B9BDF876
:104240000210204609F014FD034608B1394AEAE796
:104250000DAD36482122294619F0C2FF68B928461B
:10426000FDF72EFD2946CDE927500246204609F0EC
:104270000DFD034608B1304AD5E72C4801A919F0D5
:1042800080FF40B9BDF80410204609F01AFD03462E
:1042900008B12A4AC7E716AD24484122294619F039
:1042A000ADFF68B92846FDF70BFD2946CDE927503B
:1042B0000246204609F021FD034608B1204AB2E734
:1042C0001A480DF1060119F0E9FF40B9BDF80610D2
:1042D000204609F004FD034608B11A4AA3E727AEB9
:1042E00012484122314619F097FF02AD68B93046B5
:1042F000FDF7E6FCCDE90260204695E8060009F0EE
:1043000017FD034608B1104A8DE70848294619F001
:104310003DFF00288BD1BDF80810204609F0DFFCD6
:104320000346002883D0094A7DE700BFD0A90320B7
:104330006C0306048E030604AE030604D1030604D0
:10434000F203060420040604470406047504060468
:1043500073B5002306460D460DF1060114468DF88F
:10436000063009F0F1FD01230DF1070130468DF80B
:10437000073009F025FC9DF8070038B9FF2D07D15B
:10438000FF2C07D19DF8060000F0010002B070BDBF
:10439000EB07F7D504F00100F8E737B500230C462A
:1043A0000DF107018DF80730054609F0B2FD9DF8C3
:1043B0000730A34207D02146284609F0EEFD2146EA
:1043C000284609F0B2FD03B030BD70B50D46062198
:1043D0000446164604F031FC30B1324629462046E8
:1043E000BDE87040FFF7B4BF012070BD10B50446B2
:1043F00008464FF4407104F083FC0C2303FB00409B
:104400005430BDE8104003F045BF000038B5094BFB
:104410001B681B68DD8804462846FFF7D6FF18B1E5
:1044200029462046FFF7E2FF002006F04BF8012066
:1044300038BD00BFD4FE032082B188884B888342F8
:104440009EBF1946034608461B1A0A20584382425B
:1044500007D8B0FBF2F0B0F5803F03D34FF6FF7002
:104460007047012080B2704738B5C8880C4670B3D9
:10447000013881B2E180E08909F0EBFCA288638811
:10448000E088934220D0238821899A420ED9D31AFA
:104490004343B3FBF1F39BB2D11A89B29A42A58987
:1044A000618001D3A9420FD965800DE09B1A434377
:1044B000B3FBF1F3D118DB439BB289B29342658918
:1044C0006180F1DBA942EFD3B0FA80F0400938BD3A
:1044D000F7B50C46154600271E46511C978020460E
:1044E00009F082FC05F10A01EC81204609F038FD53
:1044F000AF740DF10701F78020468DF8077009F0C1
:104500008EFC9DF807307380F48103B0F0BD73B565
:104510000C46898811B9002002B070BD0139637C56
:1045200089B2A18013B9E08909F093FCA07CA1882D
:10453000002829D0A28963899A4210D0237CE5887B
:10454000002B36D018B3A2892389D21A92B202FB6B
:1045500001F3B3FBF5F318B3A289D31A63810029E1
:10456000D9D1637C002B6FD08DF80710E0890DF155
:10457000070109F022FD9DF80730002B37D0238971
:104580006381E388A380C6E7A2786378D4E7A6783E
:10459000237832469E4238BFFF32D21AD2B2D6E7D3
:1045A000A078DBB20246984238BFFF32D31A63705C
:1045B000D5E758B12289A389D21A92B202FB01F33E
:1045C000B3FBF5F358B1A2891344C7E72678A37863
:1045D00032469E4238BFFF32D21AD2B2EEE7A278FC
:1045E00052FA83F3FE2B84BFFF3B9BB2DFE7227CB2
:1045F000A37CC2B133B1A28923892281C3EB4203D8
:10460000A381BEE7A07823782070984234BF00F1E0
:10461000FF020246D31A50FA83F3FE2B84BFFF3BFE
:104620009BB2A370ADE7002BE5D1A1782278217071
:1046300013468A4238BFFF335B1AD8B28AB281422E
:1046400038BFFF32131AECE7012065E738B50D4695
:1046500004464FF44071284604F052FB0C234343B8
:10466000E2180349A2F85C5054339165E01838BD54
:104670006D5200042DE9F3470C4605464FF4407196
:104680002046914604F03CFB14264FF44071074647
:1046900006FB0056204604F033FB4FF0000A05EB02
:1046A00000180DF1010120468DF801A009F0A2FCCF
:1046B00019230DF102012046ADF8023009F0B7FCD4
:1046C00001A92046ADF804A009F04AFC4FF40C53B0
:1046D00008F11408ADF80630B9F1000F45D00DF11E
:1046E0000601204609F0C0FCBDF80410204609F080
:1046F000E5FC0121204609F06DFC43463246214687
:104700002846FFF7E5FE142000FB075201239374AF
:10471000BDF80410BDF80630138151819DF80120C9
:1047200042B3013B00FB07509BB2838101234374DA
:10473000BDF8023003EB8303003A4FEA43039BB218
:1047400018BF012202744FF6FF71B380F380C48159
:10475000204609F07EFB21462846FFF777FF6421BB
:1047600003F084FD02B0BDE8F087BDF80430ADF879
:104770000630B9E70133D5E72DE9F04F1646574A21
:1047800085B012684FF0000A8DF80DA0ADF80EA0AC
:104790001268D5889B4604469DF83C3001938846B4
:1047A00028464FF4407104F0ABFA4FF44071814653
:1047B000284604F0A5FA9DF83820074659462846B1
:1047C000FFF703FE30B9002005F07CFE012005B0A4
:1047D000BDE8F08F29462046FFF708FEB8F1000F2C
:1047E000F1D051464FF0140A28460AFB09FA013766
:1047F000FFF7D3FD04EB0A0B04EB071304335A460F
:1048000029462046FFF764FE019B8BF81230A3B3C4
:104810000DF10E01284609F0A3FBBDF80E30ABF8F0
:104820000830B8F1010FABF80A3045D11E44ABF89F
:104830000C60142303FB094301211420197400FBAD
:1048400009490A23ABF80430ABF8063004EB07172C
:10485000012389F811304FF6FF710026A9F80E5098
:10486000284609F0F6FA29467E812046FFF7EEFE3B
:10487000642103F0FBFC3046A6E70DF10D0128464C
:1048800009F0B2FA9DF80D3004F80A30B8F1010FC2
:104890008BF8013015D153FA86F6FE2E84BFFF3E09
:1048A000B6B28BF80260C4E79E1BABF80C60142311
:1048B00003FB09430021C0E7B8F1030FF4D08020C7
:1048C00082E7B8F1030FFAD1F6B299B2B34238BF1A
:1048D000FF31891B8BF80210E9E700BFD4FE0320EB
:1048E0002DE9F04F85B006460193674B9DF840A037
:1048F0001B681B68DD88894628464FF440711446C2
:1049000004F0FEF94FF440710090284604F0F8F9E5
:104910009DF83C209DF8381080462846FFF755FD4D
:1049200028B905F0CFFD012005B0BDE8F08F0023C8
:10493000ADF80E30BAF1000F0AD00DF10E01284685
:1049400009F00EFB032C11D8DFE804F012729C1B57
:104950000DF10D0128468DF80DA009F045FA9DF8DE
:104960000D30ADF80E30B9F1FE0F7DD98020D8E7BB
:10497000BDF80E30A3EB090313F4004F0CBF032462
:104980000124009B2946304614275F4308F10108A3
:10499000FFF72CFD00212846FFF7FFFC06EB070B75
:1049A00006EB081304335A4629463046FFF790FDBC
:1049B0008BF812A0BAF1000F4AD007F10801314478
:1049C000284609F0CDFA07F10A013144284609F0DA
:1049D000C7FAABF80C900199009B012938BF01215F
:1049E0001420ABF80410ABF8061000FB036B631E39
:1049F0005C425C4106EB08188BF810400024ABF8D1
:104A00000E508BF811402846A8F80A4009F021FA08
:104A100029463046FFF71AFE642103F027FC2046A2
:104A20007FE79DF80E30A3EB090313F0800FA5E795
:104A3000BDF80E30A3EB0903BAF1000F05D013F453
:104A4000004F0CBF012403249BE713F0800FF8E70D
:104A50005946284609F0C8F9791C3144284609F01E
:104A6000C3F98BF80290B6E7032C3FF67FAF01A3A2
:104A700053F824F0234A0004314A0004854A000414
:104A80008349000401247CE7D4FE03202DE9F04F84
:104A900087B0CDE90123644B9DF848A01B681B68D3
:104AA000DC880646884620464FF4407104F028F919
:104AB0004FF440710546204604F022F900230746D2
:104AC000ADF81630BAF1000F00F087800DF1160135
:104AD000204609F045FA019BFF2B00F08D809DF8E0
:104AE00044209DF840102046FFF76FFC002800F09E
:104AF0008480BDF81630BAF1000F47F6FF7908BF81
:104B00004FF07F0943457ED2A8EB03034B45ACBF72
:104B10004FF000094FF0010921463046FFF766FCCF
:104B20004FF0140B00212046FFF737FC0BFB07FB6F
:104B300006EB051306EB0B021433214630460392B5
:104B4000FFF7C6FC039A82F812A0BAF1000F63D0F7
:104B5000BDF8163013815381A2F80C80029B1420FB
:104B6000012B00FB076738BF01239380D38087F8B0
:104B700010904FF0000906EB05150DF11501FC81B1
:104B800087F81190204698468DF8159009F047F95E
:104B90009DF81530AB820DF1150120468DF815906A
:104BA00009F03DF99DF81530EB82019B2B83FE2324
:104BB0002B844146A5F81A80A5F81C806C84A5F8C2
:104BC0001E90204609F045F921463046FFF73EFD8C
:104BD000642103F04BFB48460FE00DF11501204620
:104BE0008DF815A009F000F99DF81530ADF81630D4
:104BF000B8F1FE0F7FF66FAF802005F063FC012057
:104C000007B0BDE8F08FA3EB08034B45D4BF4FF0CE
:104C100000094FF001097FE79DF8163006F80B30C8
:104C2000537082F8028099E7D4FE03202DE9F74FF4
:104C300001939DF8383000934F4B1B681B68DD884B
:104C400004468A4628464FF44071174604F058F847
:104C50004FF440710646284604F052F89DF834207F
:104C60009DF8301080462846FFF7AFFB30B9002092
:104C700005F028FC012003B0BDE8F08F294620464E
:104C8000FFF7B4FBBAF1000FF1D04FF01409002187
:104C9000284609FB06F908F10108FFF77EFB04EB43
:104CA000090B04EB081304335A4629462046FFF744
:104CB0000FFC009B8BF81230002B36D009F10A0153
:104CC0002144284609F04CF9BBF80A30ABF808300B
:104CD000BAF1010F15BFDF1BFF180023ABF80C70F2
:104CE0000EBF8BF810A0ABF80C708BF81030019948
:104CF0001420012900FB064604EB081838BF0121E7
:104D00000027ABF80410ABF806102846F58177743D
:104D1000A8F80A7009F09DF829462046FFF796FC8E
:104D2000642103F0A3FA3846A2E709F10101214406
:104D3000284609F059F89BF8011004F80910BAF157
:104D4000010FF8B28FB20CD10744FE2F84BFFF3F92
:104D5000BFB214238BF8027003FB064301211974C0
:104D6000C5E7814238BFFF373F1A14238BF8027022
:104D700003FB06430021F2E7D4FE03202DE9F74FA1
:104D800098463A4B1B681B68DD8806468A462846CB
:104D90004FF44071914603F0B3FF4FF44071074662
:104DA000284603F0ADFF9DF83020044641462846D2
:104DB000FFF70BFB30B9002005F084FB012003B0A6
:104DC000BDE8F08F29463046FFF710FBBAF1000F1F
:104DD000F1D0B9F1000FEED000212846FFF7DDFA3F
:104DE00006EB041B14220BF1140B02FB07674FF0B8
:104DF00000083A465B4629463046FFF769FB06EB5A
:104E000004140DF10701A7F8048028468DF80780E7
:104E100009F005F89DF80730A3820DF10701284637
:104E20008DF8078008F0FBFF9DF80730E382BAF1A8
:104E3000010F0CBFFE2343464A46238359463046A2
:104E4000FFF7FAFAFE23014623846083A08365847A
:104E5000A4F81E80284608F0FCFF29463046FFF7DC
:104E6000F5FB642103F002FA4046A5E7D4FE0320D7
:104E70002DE9F3479A46354B1B681B68DD880646CB
:104E8000894628464FF44071174603F039FF4FF426
:104E900040718046284603F033FF9DF828200446E1
:104EA00051462846FFF791FA28B905F00BFB01207F
:104EB00002B0BDE8F087012F38BF0127B9F1FF0F1D
:104EC00001D18020F1E729463046FFF78FFA002113
:104ED0002846FFF762FA142206EB041302FB086867
:104EE0004FF0000A1344294642463046FFF7F0FAD5
:104EF00006EB04140DF10701A8F804A028468DF86C
:104F000007A008F08CFF9DF80730A3820DF1070180
:104F100028468DF807A008F082FF9DF80730E3824D
:104F2000FE2323843946A4F818906783A7836584F9
:104F3000A4F81EA0284608F08CFF29463046FFF74B
:104F400085FB642103F092F95046AEE7D4FE0320BE
:104F50002DE9F04F85B0064601933B4B1B681B685B
:104F6000DD888A4628464FF44071914603F0C8FE1A
:104F70004FF440718346284603F0C2FE9DF83C2062
:104F80009DF8381004462846FFF71FFA30B9002074
:104F900005F098FA012005B0BDE8F08F0DF10F0182
:104FA000002728468DF80F7008F039FF2946304653
:104FB0009DF80F80FFF71AFABAF1000FE7D03946D3
:104FC0002846FFF7EAF9142206EB041302FB0B6BE9
:104FD000134429465A463046FFF77AFA4FEA041C32
:104FE00006EB04141FFA88F2BAF1010FABF8047053
:104FF000A282E28220D19144B9F1FE0F28BF4FF086
:10500000FE09A4F818900199012906EB0C0238BF9B
:1050100001216183FE23002491835584D48313846A
:10502000284608F016FF29463046FFF70FFB64219B
:1050300003F01CF92046ABE7C1459CBFA8EB09076C
:10504000FFB22783DFE700BFD4FE03202DE9F04F36
:105050009B46554B1B681B68DC8885B00546884617
:1050600020464FF440711646BDF838A003F048FEC4
:105070009DF844209DF8401007462046FFF7A5F90B
:1050800030B9002005F01EFA012005B0BDE8F08F10
:1050900000230DF10D0120468DF80D3008F08DFF35
:1050A00018F0010318BFB6FA86F901930CBFDDF8BA
:1050B00004904FEA591918F0020F1ED059462046A5
:1050C00008F0A5FF9DF80D30BBB1B9F1000F14D168
:1050D000142101FB0750BBF1000F14BF0123002373
:1050E00003744389038101FB075114BF03F1FF33AC
:1050F00001339BB28B81CB888B8018F0040F1DD0BD
:105100005146204608F0A0FF9DF80D30B3B1B9F12B
:10511000000F13D1142000FB07520AEB8A0A117CFE
:10512000538913814FEA4A0AA2F806A059B3013BFA
:1051300000FB07579BB2BB81D388938018F0080F00
:1051400004D0BDF83C10204608F09BFF019B002BCB
:1051500097D0D6B99DF80D30002B92D02146284625
:10516000FFF744F93146204608F034FF0DF10E01F7
:105170002046ADF80E6008F094FFBDF80E102046F2
:1051800008F0FBFE7DE70133D2E7012E05D1324660
:1051900021462846FFF76EFA73E7022E01D100225E
:1051A000F6E780206EE700BFD4FE03202DE9F34729
:1051B0000D4604464FF44071284603F0A1FD4FF020
:1051C000140A0AFB004A4FF440710646284603F0D1
:1051D00097FD514604EB001980462046FFF797F9EA
:1051E00009F11409494607462046FFF73DF92946CB
:1051F00007B948B32046FFF7F9F8142707FB06471D
:10520000BB7C43B37989284608F0B7FE79892846E4
:10521000090A04EB081808F0F3FD98F81610B8F81E
:10522000220008F007FE142000FB0644B8F81630F0
:10523000A27C9AB10B49628900954FF4507004F03A
:10524000B1FC02B0BDE8F0872046FFF7FFF964210A
:1052500003F00CF8D1E77978F889DAE76278024947
:105260000095EAE79C040604A504060401460148EB
:10527000FFF79CBFE4E7032038B50D4604464FF422
:105280004071284603F03CFD0C234343E2180349D8
:10529000A2F85C5054339165E01838BD655600049F
:1052A0002DE9F84F98463A4B1B681B68DC88074687
:1052B0008A4620464FF44071914603F021FD4FF499
:1052C00040710646204603F01BFD9DF82C209DF8FA
:1052D000281005462046FFF778F820B905F0F2F8C7
:1052E0000120BDE8F88FB8F1010F2146384606F1DC
:1052F000020B38BF4FF001084FEA0B1BFFF776F89F
:1053000001212046FFF749F80BF1040139442046FA
:1053100007EB061608F0ACFD0BF1060139442046F8
:1053200008F0A6FD4FF6FF6BA6F828A04FF0000A84
:10533000A6F82A80A6F82C807486A6F82EA0A6F8D7
:1053400030B0EE1C3601311D3944204608F0ABFD6B
:10535000B11D3944204608F0A6FD07EB0511204693
:10536000A1F83890A1F83A80A1F83C80A1F8424019
:10537000A1F83EA0A1F840B0414608F06AFD2146E0
:105380003846FFF779FF642102F070FF5046A5E729
:10539000D4FE03202DE9F74F9946464B1B681B6846
:1053A000DD880446884628464FF44071924603F053
:1053B000A7FC4FF440710646284603F0A1FC9DF877
:1053C0003020074649462846FEF7FFFF30B9002047
:1053D00005F078F8012003B0BDE8F08F294620469B
:1053E000FFF704F858EA0A03F1D004EB061303F1BF
:1053F000240928460121FEF7D0FF4946284608F037
:1054000037FD330104EB0616B8F1000FB28CF284BD
:105410001FFA88F2DBBF524200214FF6FF6192B2C1
:105420003185204649460193FFF706F8019B7085B8
:10543000E11804EB071B00230BF1340B4FF6FF665A
:105440004FEA071904EB0717CB85804688854D8600
:105450000E862846594608F026FDB98EF986BAF11F
:10546000000F1FFA8AF1DDBF494289B2002333469B
:105470003B870A4620465946FEF7DEFF04EB090348
:10548000002278878045DA874FF6FF6201469887C9
:1054900038BF4146A3F84250A3F84020284608F000
:1054A000D8FC29462046FFF7E7FE642102F0DEFE25
:1054B0008DE700BFD4FE03202DE9F74F9846444BFB
:1054C0001B681B68DE8881468A4630464FF440716F
:1054D000934603F015FC4FF440710546304603F047
:1054E0000FFC9DF834209DF8301004463046FEF73E
:1054F0006CFF28B904F0E6FF012003B0BDE8F08F8F
:10550000002701A93046ADF8047008F0B1FC0DF198
:1055100006013046ADF8067008F0C5FCBDF8043051
:1055200013EB0A0149D4B1F57F4F48DA1FFA81FA2B
:10553000BDF8067017EB0B0744D4B7F57F4F43DA7D
:10554000BFB2B8F1010F3146484638BF4FF00108ED
:10555000FEF74CFF01213046FEF71FFF09EB051255
:10556000BDF804309384D38400254FF6FF6313867F
:10557000A2F828A0A2F82A80A2F82C805686D58509
:1055800009EB0412BDF806109186D1861787A2F8A0
:105590003A80A2F83C80A2F84260D587A2F8403059
:1055A0004146304608F055FC31464846FFF764FE58
:1055B000642102F05BFE28469CE7BA46B8E74FF646
:1055C000FF6AB5E70027BCE74FF6FF67B9E700BF02
:1055D000D4FE03202DE9F0470D4604464FF44071F8
:1055E000284603F08DFB4FF4407104EB001806468B
:1055F000284603F085FB08F12408414604EB001916
:1056000007462046FEF730FF09F134094946804637
:105610002046FEF729FF2946B8F1000F00D1B8B1A6
:105620002046FEF7E3FE04EB061604EB0714F18CAC
:10563000284608F029FCE18E284608F040FCE38E5D
:10564000F28C0749BDE8F0474FF4507004F0AABA55
:105650002046FFF711FE642102F008FEE3E700BFD9
:10566000C604060401460148FFF7B4BFE4E703207F
:1056700038B50D4604464FF44071284603F040FB10
:105680000C234343E2180349A2F85C50543391655C
:10569000E01838BD355800042DE9F7431F462F4B5D
:1056A0001B681B68DC8806464FF440712046904614
:1056B00003F026FB0023054601A92046ADF804307F
:1056C00008F00CFD4FF6FF630DF106012046ADF822
:1056D000063008F010FD012F2146304638BF012763
:1056E000FEF784FE20460221FEF757FEBDF8049027
:1056F000C1454A4638BF424605F10408BDF8069048
:105700004FEA081808F1040191453144204628BFAA
:10571000914608F0E3FB08F106013144204608F009
:10572000DDFB06EB0511BDF80430A1F84E30BDF8E5
:105730000630A1F85030A1F84890A1F84A70A1F8BD
:105740004C70A1F8524030462146FFF791FF64218A
:1057500002F08CFD03B0BDE8F08300BFD4FE03204F
:1057600037B50C464FF6FF7369462046ADF800305A
:1057700008F0CEFC70BB4FF6FF650DF1020120462C
:10578000ADF8025008F0AAFB20BBADF8040001A957
:10579000204608F0A3FC0DF106012046ADF80650A6
:1057A00008F0A9FCBDF80010BDF804308B4211D8F8
:1057B000BDF806308B420DD32046ADF8021008F03C
:1057C00099FB38B90221204608F0AFFB02212046A0
:1057D00008F0E3FB03B030BD70B50D4604464FF44E
:1057E0004071284603F08CFA04EB00114431064660
:1057F0002046FEF739FE294690B12046FEF7F6FD19
:1058000004EB06142846B4F8461008F073FBB4F80D
:1058100046200749BDE870404FF4507004F0C2B90B
:105820002046FFF725FF642102F020FDE8E700BFD6
:10583000DC04060401460148FFF7CEBFE4E703207D
:105840002DE9F04F9846454B1B681B6885B0DD88F5
:10585000009106464FF440712846914603F050FAF5
:105860009DF840209DF83C1004462846FEF7ADFD0B
:1058700008B900201BE003A94FF0000B2846ADF843
:105880000CB008F02BFC4FF6FF630DF10E0128461B
:10589000ADF80E3008F02FFC29463046FEF7A6FD85
:1058A000009B002BE5D0B9F1000F06D1852004F054
:1058B00009FE012005B0BDE8F08FBDF80C20BDF851
:1058C0000E70904538BF9046BDF8382006EB0413A3
:1058D00097424FF00201284628BF174603F1440AB9
:1058E000FEF75BFD230106EB04145146A4F844B017
:1058F0002846019308F0F2FA009BB4F84420A4F87B
:105900004620012B23D1BDF80E20BA4228BF3A46CB
:10591000A4F8482051464A463046FEF78DFD019BCB
:10592000A4F84A0033440146A3F84C00A3F85250AF
:10593000A3F84E80A3F85070284608F08AFA29464A
:105940003046FFF795FE642102F090FC91E7BDF828
:105950000C20424538BF4246DAE700BFD4FE0320A0
:10596000F8B516460C4A12681268D7889DF81820B8
:1059700004460D4638461946FEF727FD18B904F0CF
:10598000A1FD0120F8BD204633462A463946FFF7DF
:1059900083FE0020F3E700BFD4FE03202DE9F04F83
:1059A0001E46454B1B681B68DC8887B005468A4647
:1059B00020464FF44071914603F0A2F99DF84C2027
:1059C0009DF8481080462046FEF7FFFC30B90020C5
:1059D00004F078FD012007B0BDE8F08F05A94FF075
:1059E000000B2046ADF814B008F078FB4FF6FF63CB
:1059F0000DF116012046ADF8163008F07CFB21466B
:105A00002846FEF7F3FCBAF1000FE0D0BDF81420F1
:105A1000BDF840309A4238BF1A460192BDF8443072
:105A2000BDF816209A4228BF1A4605EB0817022136
:105A300020460292FEF7B1FC39464FEA0813A7F858
:105A400044B044312046039308F048FAB7F84420A4
:105A5000A7F84620BAF1010F25D19144B9F5803F4E
:105A600027D34FF6FF73A7F84830039B012E2B4432
:105A700031461A4638BF0121A7F84A10A3F84C1046
:105A8000A3F85240019BA2F84E30029BA2F850307E
:105A9000204608F0DEF921462846FFF7E9FD64219B
:105AA00002F0E4FB93E7A2EB0909B9F5803F28BFB8
:105AB000D946A7F84890D8E7D4FE032007B50023BD
:105AC0000193D3780093114693780978527803486C
:105AD000FEF752FE03B05DF804FB00BFE4E70320CD
:105AE00007B51146D3780093937809785278034824
:105AF000FFF744F903B05DF804FB00BFE4E70320BF
:105B00001FB5002302935379019313790093114633
:105B10005388097852780348FEF7E2FE05B05DF835
:105B200004FB00BFE4E7032007B511465379009357
:105B30001379097852880348FFF79AF903B05DF8A2
:105B400004FB00BFE4E703201FB500230293537951
:105B500001931379009311465388097852780348CA
:105B6000FEF794FF05B05DF804FB00BFE4E70320F7
:105B70001FB50023029313790193D3780093114644
:105B80009378097852780348FFF750F805B05DF82C
:105B900004FB00BFE4E7032007B513790193D37832
:105BA000009311469378097852780348FFF7D0F9AB
:105BB00003B05DF804FB00BFE4E7032007B5012351
:105BC0000193537900931146137909785288034859
:105BD000FEF7D2FD03B05DF804FB00BFE4E703204D
:105BE0001FB501230293D379019393790093114652
:105BF0009388098892780348FEF772FE05B05DF835
:105C000004FB00BFE4E703201FB501230293D3790F
:105C100001939379009311469388098892780348F9
:105C2000FEF734FF05B05DF804FB00BFE4E7032096
:105C30001FB501230293D379019393790093114601
:105C40009388097852880348FEF7F0FF05B05DF8A5
:105C500004FB00BFE4E703201FB5537A0393137AD4
:105C60000293D3880193938800931146937809781F
:105C700052780348FFF7EAF905B05DF804FB00BF6E
:105C8000E4E7032007B5D379019393790093114694
:105C90009388098852880348FFF702FB03B05DF838
:105CA00004FB00BFE4E7032007B5114653790093D6
:105CB0001379B1F90010B2F902200348FFF76AFB2B
:105CC00003B05DF804FB00BFE4E7032007B5D37918
:105CD00001939379009311469388B1F90010B2F9BA
:105CE00002200348FFF7E8FB03B05DF804FB00BFA8
:105CF000E4E7032007B51146537900931379098827
:105D000052880348FFF72CFE03B05DF804FB00BF88
:105D1000E4E703201FB5537A0293137A0193D388E3
:105D2000009311469388097852880348FFF788FD4D
:105D300005B05DF804FB00BFE4E703201FB5D37A8C
:105D40000393937A029313890193D38800931146A6
:105D50009388097852880348FFF720FE05B05DF864
:105D600004FB00BFE4E70320134602485278197889
:105D7000FEF74CBBE4E7032001460148FFF7F0BC07
:105D8000E4E70320704710B51021044653F094FA5D
:105D9000204610BD2DE9F043054687B0006802ABF0
:105DA00083E8060008B903200AE00DF11703019308
:105DB00016230093D5E9022314F093F8044610B19A
:105DC00007B0BDE8F083DDF808809DF80C90B8F8C6
:105DD00000002F68494602F0ADFF0646E1B28E4250
:105DE00013D9B8F800004A4602F0CCFF002FDAD0F1
:105DF000036800934FF0FF324FF0FF33384613F043
:105E00009CFF01340028E9D0DAE79DF917102868D3
:105E100014F096F8D4E700002DE9F0414B681D2BF3
:105E200086B0154601D04BF087FF8E68032E00F236
:105E30009D80DFE806F002364A5510680F8801237E
:105E40001374C0B10DF10E03019316230093D2E930
:105E5000022314F046F8064668B938462C6802F06A
:105E6000ADFE464B03EB0010037942880492ADF877
:105E7000143024B90326304606B0BDE8F0814FF057
:105E8000FF324FF0FF33214604A816F0CFFB064641
:105E90000028F0D19DF90E10286814F051F806463C
:105EA000E9E70B88ADF80E300DF10E0304930123E2
:105EB0008DF8143028682B740028DDD006AB13E968
:105EC00006002846FFF766FFD6E70B88ADF80E30D0
:105ED0000DF10E03049300238DF814300123E9E73C
:105EE00017680A8801232B745ABB002F3BD004ABE0
:105EF0000193162300933846D5E9022313F0F1FFEE
:105F0000044688BB2F6802F075FC1FFA84F84045F0
:105F10002ED9404602F074FC08B90134F3E740463C
:105F200002F002FF0028F8D037B300904FF0FF32A4
:105F30004FF0FF33384613F0F6FE0028EDD004464C
:105F400012E087B104AB0193162300933846D5E9DC
:105F5000022313F0C6FF044630B99DF910103846ED
:105F600013F0EEFFEBE73C46204685E7002083E791
:105F70009DF910102868F3E73046E0E780F403202D
:105F8000014803F03DB800BF44E803200548064936
:105F900000231D22C0E902230371044B044A03605D
:105FA00053F00EB944E80320855D00045C05060447
:105FB000B8A8032008B5002004F084FA012008BD29
:105FC0006C2070476C2070476C2070476C207047C5
:105FD0006C2070476C2070476C2070476C207047B5
:105FE000704710B51021044653F066F9204610BDE5
:105FF00010B586B002AB83E803000E48029B04A9EB
:10600000144698476C2810D100220023CDE90423C0
:1060100020680121DDE90423217440B1CDE900238A
:10602000D4E9022313F059FE01E00028F0D006B0B5
:1060300010BD00BF5443042010B586B002AB83E806
:1060400003000D48029B0DF11701144698476C2878
:106050000ED100238DF8173020689DF817300122EB
:10606000227438B10093D4E9022313F026FE01E034
:106070000028F1D006B010BD5443042000B54B6891
:10608000372B93B003D02F2013B05DF804FB886842
:10609000082850D8DFE800F005122B323940471BA2
:1060A00022001168012313740029EDD0002300930E
:1060B000D2E90223084613F02CFEE5E71F4B0293BA
:1060C0001E48002303931946FFF7B6FFDCE71C4B7D
:1060D000049300231A4805931946F5E7194B0693D4
:1060E0001848002307931946FFF782FFCCE7164BA9
:1060F00008930023144809931946F5E7134B0A93B4
:10610000002312480B931946EEE7114B0C93002322
:106110000F480D931946E7E70E4B0E9300230D48E9
:106120000F931946E0E70C4B10930023119312AB29
:1061300013E90300D8E70020A6E700BFC15F000411
:10614000C55F0004C95F0004CD5F0004D15F000497
:10615000D55F0004D95F0004DD5F000408B50120AD
:1061600004F0B0F9012008BD054806490023372294
:10617000C0E902230371044B044A036053F020B8C2
:1061800054E80320E15F0004AC050604B8A803202E
:1061900010B5148816F092F84FF47A71614316F036
:1061A000AFF8003818BF012004F08CF9012010BDB1
:1061B00008B516F083F816F0BFF8003818BF0120B4
:1061C00004F080F9012008BD37B5144616F076F8C2
:1061D0002246D4E9044512F8041BCDE9004516F027
:1061E000D5F8003818BF012004F06CF9012003B085
:1061F00030BD704710B51021044653F05DF82046BD
:1062000010BD000030B54B68332B85B0144602D06A
:106210002F2005B030BD886804287FD8DFE800F063
:106220000319324D6400156801231374002DF0D05A
:1062300002AB019316230093D2E90223284613F000
:1062400050FE0028E5D19DF90810284613F078FE8D
:10625000DFE7334802A918F046FB6C280FD1002372
:10626000ADF808302068BDF80830012222740028FB
:10627000CFD00093D4E9022313F055FDC9E70028DD
:10628000C7D1EFE7264802A918F02FFB6C2811D1DF
:1062900000220023CDE9022320680121DDE9022349
:1062A00021740028B5D0CDE90023D4E9022313F0EE
:1062B00014FDAEE70028ACD1EEE7194802A918F0AA
:1062C00016FB6C280DD1002302932068029B01224B
:1062D000227400289DD00093D4E9022313F02DFDF1
:1062E00097E7002895D1F0E70D4802A918F001FBC7
:1062F0006C280FD100238DF8083020689DF80830F5
:1063000001222274002884D00093D4E9022313F0E0
:1063100000FD7EE700287FF47CAFEEE7002078E701
:106320005C430420014802F06BBE00BF64E8032018
:106330000548064900233322C0E902230371044BB8
:10634000044A036052F03CBF64E80320F361000498
:10635000FC050604B8A8032008B5082102F0D0FC0B
:106360004FF6FF7398421DBF024B182202FB00300C
:10637000002008BD74E8032007B500230A460093F7
:10638000082101F0D3FF03B05DF804FB38B50C46DB
:106390000621054602F051FC80B1094B094A0A4921
:1063A000002C08BF1A4640F2011003F0FBFB214607
:1063B00028460122BDE8384000F00ABC38BD00BFC5
:1063C0005EFF050449FF0504080606042DE9F743AE
:1063D0003D4B1B681B68B3F80680814640460E465D
:1063E0001746FFF7B9FF044600286BD037B90025E0
:1063F000284604F067F803B0BDE8F0830821404662
:1064000001F0C2FF0DF10601404607F0F2FB054620
:1064100030B102462D4940F2011003F0C3FBE7E71B
:10642000C4F800901EB1012E2AD08525E0E79DF822
:10643000066040F2FF13F643A380F6B221799DF87F
:1064400006308B4220D9FF2F36D10DF1070140468F
:1064500007F0E8FB024630B31D4940F2011003F09B
:10646000A1FB0023E360E16800234E436361A37155
:106470004FF6FF73266123814046FFF77DFFB7E7A4
:106480009DF80660A080D9E7B9F1050F05D1003964
